:020000040800F2
:1000000090050020B1230008C9220008D72200086B
:1000100000000000000000000000000000000000E0
:10002000000000000000000000000000DB220008CB
:100030000000000000000000DD220008DF220008B0
:10004000C30800082B090008D71F00087B210008FF
:10005000CD210008EB220008732300087F2300084D
:10006000C1230008C3230008C5230008C7230008D4
:10007000C9230008CB230008CD230008CF230008A4
:10008000D1230008D3230008D5230008D723000874
:10009000D9230008DB230008DD230008DF23000844
:1000A000E1230008E3230008E5230008E723000814
:1000B000E9230008EB230008ED230008F8B584B01D
:1000C0000400002C01D101204FE2012620683040BD
:1000D00000285CD0B3480068382101400291B24842
:1000E00000688007800F01900298102802D10198C3
:1000F000032802D00298082808D1AC480068800381
:1001000045D56068002842D101202EE280204002BF
:100110006168814204D1A5490A681043086017E06C
:100120006168A022D202914209D1A0490A688023C5
:10013000DB0213430B600A681043086008E09B4829
:100140000168B04A0A4002600168AF4A0A40026092
:10015000606800280DD000F057FB05009348006848
:10016000800314D400F050FB401B6528F6D3032015
:10017000FBE100F049FB05008C480068800306D5D0
:1001800000F042FB401B6528F6D30320EDE1207808
:10019000800776D583480068382101400291824863
:1001A00000688007800F01900298102802D1019802
:1001B000022802D0029800282CD17C49086840050A
:1001C00004D5E068002801D10120CEE1BA480368D7
:1001D000BA4A1A4063691B0213430360029800285D
:1001E00010D10868B64A0240206910430860B5483B
:1001F0000968C90A4A07520F3100914000F00AFB12
:10020000BD490860BD48006800F05CFB002838D09C
:100210000120AAE1E068002821D0644F3868A8498D
:100220000140206908433860386880214900014353
:10023000396000F0E9FA05003868400506D400F09E
:10024000E3FA401B0328F7D303208EE19A480168A4
:100250009A4A0A40616909021143016011E0534F53
:100260003868A7490140396000F0CEFA05003868C7
:10027000400506D500F0C8FA401B0328F7D3032039
:1002800073E12078000734D54648006838210140E2
:10029000182908D1B648006880072AD5A069002827
:1002A00027D1012061E1A069002810D0B04F386843
:1002B0003043386000F0A8FA05003868800718D489
:1002C00000F0A2FA401B0328F7D303204DE1A84F0A
:1002D000386801218843386000F096FA05003868D4
:1002E000800706D500F090FA401B0328F7D30320BF
:1002F0003BE1042720683840002800D18FE000202F
:1003000069460870274800683821014020290AD131
:1003100098480068800700D481E0A068002800D0D9
:100320007DE0012021E180204005934909680140DA
:1003300000290AD190490A6802430A600968084006
:10034000039003983000694608708C480068C00527
:1003500014D48A480068802149000143874801601D
:1003600000F052FA050085480068C00506D400F088
:100370004BFA401B0328F6D30320F6E0A0680128BF
:1003800004D17C4801680E4306601AE0A068052885
:100390000ED1784801680F43076001680E4306607C
:1003A0000FE000BF081002400C1002400010024095
:1003B0007048016801229143016001680422914361
:1003C0000160A06800280ED000F01EFA0500694800
:1003D000006880071AD400F017FA401B6849884269
:1003E000F5D30320C1E000F00FFA05006148006872
:1003F00080070BD500F008FA401B61498842F5D30D
:100400000320B2E0FFFFFEFFFFFFFBFF684600781E
:10041000012804D1584801685A4A0A400260E0693C
:10042000002800D1A0E05848006838210140102978
:1004300068D0E069022847D1B34F3868B34901401A
:10044000396000F0E1F900908026B6043868304049
:10045000002807D000F0D8F90099401A0328F3D3F8
:10046000032082E0AB480168A94A0A40216A11438F
:10047000626A0A43A16A09021143E26A0A43216BD4
:100480001143626B0A4302603968802252040A43B6
:100490003A600168802252050A43026000F0B4F914
:1004A00005003868304000285ED100F0ADF9401BEF
:1004B0000328F6D3032058E004100240FF80FFFF1A
:1004C000FFC7FFFF0024F4008F4E30688F490140C2
:1004D000316000F099F905003068800106D500F020
:1004E00093F9401B0328F7D303203EE089480168B5
:1004F000894A0A40026037E0040000200000002022
:10050000FFFEFFFFE069012801D101202DE08148B5
:100510000068019001988007800F216A884221D1EC
:10052000019870210140606A81421BD10198FE212F
:10053000C9010140A06A0002814213D10198F8214B
:1005400089030140E06A81420CD10198E02109054C
:100550000140206B814205D10198400F4007616B3B
:10056000884201D0012000E0002005B0F0BD00006D
:10057000601002405C1002403C10024000700040DD
:1005800089130000FFFFFFEF08100240F3B581B0B0
:100590000400002C01D10120B4E007258C4E306806
:1005A00028400299884216D2306807218843029970
:1005B0000143316000F028F900903068284002992A
:1005C000884208D000F020F90099401A81498842F9
:1005D000F3D3032096E002202168014000290FD0C8
:1005E0002178490705D57C490A68E023DB011343DC
:1005F0000B6079490A68794B1340A2681A430A6074
:100600002178C90745D56168012905D13E480068B0
:10061000800324D4012075E06168022905D13A489D
:10062000006880011BD401206CE06168002905D1BD
:1006300035480068400512D4012063E06168032951
:1006400006D1674909680840002808D1012059E00F
:10065000644909680840002801D1012052E05E4F3A
:1006600038680721884361680143396000F0CCF89D
:1006700000903868382101406068C000814208D08D
:1006800000F0C2F80099401A52498842F1D3032081
:1006900038E0029831682940884216D23068072134
:1006A000884302990143316000F0AEF80090306851
:1006B00028400299884208D000F0A6F80099401A14
:1006C00044498842F3D303201CE02078400706D534
:1006D00041480168444A0A40E1681143016000F062
:1006E0001DF842493C4A1268120A1207120F920082
:1006F000895CC906C90EC8403D4908603D4800688C
:1007000000F0E0F8FEBD000000100240FFFFFFFE19
:100710008C80C1110C100240FCFFFEEEFCB53820AD
:100720002D490A680240002A0CD10120324909688B
:10073000C90A4907490F884006003048310000F0D7
:1007400069F844E00A680240082A01D12C483EE0DA
:100750000A680240102A2BD12A4F38688007800F80
:100760000190386800094007400F401C05000198BF
:1007700003280AD12248290000F04CF83968090AF8
:100780004906490E4843040009E01C48290000F0CE
:1007900041F83968090A4906490E48430400386897
:1007A000400F401C00902000009900F033F80EE04C
:1007B0000A680240202A02D18020000207E009686E
:1007C0000840182802D1FA20C00100E00020F6BD40
:1007D000002002408913000008100240FFF0FFFFD4
:1007E000601002405C100240FF8FFFFFD021000824
:1007F0000400002000000020001002400024F4004B
:1008000000127A000C10024001480068704700BFD7
:10081000640100200022030A8B420BD203098B42A1
:1008200019D243088B422ED2411A00D201465241BE
:1008300010467047FF2209023FD012068B4205D3B3
:10084000121209028B4201D31212090203098B42D0
:1008500019D300E0090AC3098B4201D3CB01C01AA6
:10086000524183098B4201D38B01C01A5241430983
:100870008B4201D34B01C01A524103098B4201D371
:100880000B01C01A5241C3088B4201D3CB00C01ADE
:10089000524183088B4201D38B00C01A5241430856
:1008A0008B4201D34B00C01A5241884200D3401AF8
:1008B0005241CFD201461046704708B500F034F8D7
:1008C00008BDFEE738B50500002414490878002863
:1008D0001ED0FA2080000978FFF79CFF0100104825
:1008E0000068FFF797FF00F07EF800280DD1042D77
:1008F00008D2002229000020C04300F06AF809480D
:10090000056007E00120040004E00120040001E08C
:10091000012004002000C0B232BD00BF4C00002006
:1009200004000020000000207047FEE7F0B5020040
:1009300052B2002A17D418222E4B040064B2A40825
:10094000A4001C59FF25C6001640B540AC438D01DC
:10095000EDB2C600324095402543020052B29208E3
:1009600092009D501BE00F22234B182405006DB20E
:100970001540083DAD08AE0005006DB22A40083AAA
:10098000920892009A58FF25C7002740BD40AA430D
:100990008D01EDB2C7003C40A54015439D51F0BD0F
:1009A00010B50400601E80214904884201D3012053
:1009B0000EE0601E1149086003210020C043FFF7CC
:1009C000B5FF00200E49086007200E49086000208E
:1009D00010BD70B505000C0016002100280040B2C3
:1009E000FFF7A4FF70BD10B504002000FFF7D8FF8B
:1009F00010BD000000E400E01CED00E014E000E0A9
:100A000018E000E010E000E0C000B0494018704776
:100A100001000800C0B2C243D0B20002C9B2014313
:100A2000C0480843704730B502001300140A00297B
:100A300001D000201AE0100C0004BA4DA84201D0E9
:100A4000002013E0D8432500C0B2EDB2A84201D087
:100A500000200BE01800C0B2002803D01800C0B27C
:100A6000042801D3002001E01800C0B230BD70B5E9
:100A700004000D0016002000FFF7C6FF0168296082
:100A80004168316070BD30B585B00024009402200B
:100A90000190042002903F20039001200490AD4D6E
:100AA000E868401CE860694601A800F063F9002886
:100AB00004D02869401C2861002002E0A648046098
:100AC000012005B030BDFEB506000F003800C0B2F1
:100AD000FFF79EFF040000253000FFF795FF22007E
:100AE0002B000100012000F0B5F9002805D099483D
:100AF0000169491C0161002018E06A4601A9300023
:100B0000FFF7B5FF00990198FFF78DFF3900C9B2D3
:100B1000884205D08F480169491C0161002005E029
:100B20008C488168491C816046600120FEBD70B51B
:100B30000400894D2868FF2801D9002015E000F045
:100B4000BEF98648864908602100C9B22868FFF7C7
:100B5000BAFF060000F0C5F93000C0B2002802D08C
:100B60002868401C28603000C0B270BD38B5040051
:100B7000002500F0A4F9794879490860FFF783FF60
:100B8000002805D02100C9B20020FFF79CFF050016
:100B900000F0A7F92800C0B2002802D001206E4959
:100BA00008602800C0B232BD01206E490870694952
:100BB00048777047FEB5002630006946487030001F
:100BC000694608700124684F20003870300065497C
:100BD0000870300065490870802040005E49086058
:100BE0005C4D3A4828600020C0436860AE60EE600B
:100BF0002E616E61300068763000A8763000E876AD
:100C00003000287730006877FF2E26D801AA02A985
:100C10003000FFF72CFF0020C0430299814205D12C
:100C20000199814202D14C48066016E00199029870
:100C3000FFF7F9FE6946887068468078002807D07B
:100C400068468078694648706E602000687602E0E9
:100C5000200069460870761CD6E76869002802D033
:100C600020006946087068464078002802D068462F
:100C7000407838706846007800280CD02000E8766C
:100C80003878FFF773FF002801D02C7717E03C700D
:100C9000FFF78AFF13E03048006800280FD12000DA
:100CA00032490870AC760120FFF741FF002806D1D9
:100CB0000120FFF75BFF002801D1FFF775FF3878AF
:100CC0002876F7BD284800787047000000F8010832
:100CD00010B504002000C0B2002803D02000C0B22C
:100CE000042800D31AE0204821000278C9B29142BA
:100CF00014D00470174804761A48007800280DD1E3
:100D00002000C0B2FFF713FF002807D12000C0B2B7
:100D1000FFF72CFF002801D1FFF746FF10BD134855
:100D2000007870470000735E0E480078704700B589
:100D30000F480168002901D4002009E001688022E1
:100D400012060A43026003484169491C41610120BF
:100D500000BD00007C00002060010020FAC30000FC
:100D6000102002408D0100208C0100208E01002007
:100D700018200240F2B505002E480078012801D164
:100D8000022042E001202B490870002629484660D5
:100D9000FA20800000F0B9F807003800C0B200283F
:100DA0002FD1042068602868042808D1686800F002
:100DB0002DF8FA20800000F0A8F8070021E00020BC
:100DC000C04300990860A8680400A868E968401852
:100DD000844211D22100686800F020F8FA208000D7
:100DE00000F093F807003800C0B2002802D0009845
:100DF000046001E0641CE8E70F48016802229143A7
:100E000001600C4806703800C0B2F2BD0A490A6899
:100E1000024380235B0213430B60704730B4064BE0
:100E20001C68064A2240CC001443054D25431D6032
:100E300030BC7047B80000201420024007E0FFFFDC
:100E40000200010008B4024B9C4608BC6047C04643
:100E500009000020F3B581B00CB44E4D287801286C
:100E600001D1022029E00120287000246C60FA27BB
:100E7000BF00380000F049F806003000C0B200287A
:100E800018D10398012806D168460CC80838049880
:100E900000F070F805E0684603C801000498FFF709
:100EA000D1FF380000F031F806003B480168039A92
:100EB000914301602C703000C0B205B0F0BD00B5A8
:100EC000002035490A68002A09D5364A364B136096
:100ED000364B13600968002901D501210800C0B212
:100EE00000BD10B50124FA20800000F00EF82A4859
:100EF0000168802212060A4302600068002801D5BA
:100F0000002004002000C0B210BDF8B50400FFF7B7
:100F10007BFC050080277F02214E30683840002886
:100F20000AD00020C0438442F6D0FFF76DFC401B7E
:100F3000A042F1D303201CE0306818490140009121
:100F40001B4830600098002804D000981149486080
:100F500001200EE0306840030AD50020C0438442DF
:100F6000F8D0FFF751FC401BA042F3D3032000E070
:100F70000020F2BD30B40100074804680125254374
:100F800005600A60BFF36F8F0800001D036030BC6E
:100F900070470000B800002014200240FAC300008F
:100FA000102002400820024023016745AB89EFCDA5
:100FB000FBC3000080B50121AE4800F044FAC0B286
:100FC000002801D1012000E00020C0B202BD00B520
:100FD00086480078002803D002209649087002E075
:100FE00000209449087000200100994A1170994925
:100FF000088099490880A049087000BD9F492622B1
:1010000088547A4A12782723CA549D4A1278282392
:10101000CA54884A12782923CA548D4A12782A233E
:10102000CA548C4A12888A838B4A1288CA837047B2
:1010300030B501006D480278002A01D0142200E08A
:101040000F220B000478DBB2A34211D18D48038834
:10105000002B09D0894B9C69641C9C619C8C058881
:10106000AC4201D204889C840023038000201CE051
:10107000844B1C88641C1C801C881500ADB2AC42DB
:1010800001D2002011E000241C80017000780028AB
:1010900005D07A4843685B1C4360012005E077482F
:1010A00083685B1C83600020C04330BD30B561495C
:1010B0000A78002A02D0012A0DD064E0020052B260
:1010C000012A07DB00221300614C2370614B1A8058
:1010D00001220A7060E0020052B2002A0ED55D497A
:1010E0000988664A11845A490A78FF2A02D00A7888
:1010F000521C0A700021584A118043E0020052B28B
:10110000012A07DB544909885C4A51840021514A6D
:10111000118037E0354A1278002A12D04D4A1388E0
:101120005B1C13801288FA23DB009A422AD3534AAD
:1011300053695B1C53610022454B1A7002220A70EE
:1011400020E0454A13885B1C13801288AF239B0064
:101150009A4217D33E4A13781C00E4B2052C05D3FB
:1011600004242300454C25696D1C2561424C2370E5
:10117000424CE5686D1CE5602B2563550024250075
:1011800015700C7008E0020052B2002A04D500224B
:1011900013002F4C23700A7030BD70B500243A4DF7
:1011A00020002870200036490870FFF703FF060072
:1011B0000E480670200033490880FFF708FF2F48CB
:1011C000046044608460C4600461446184612100FF
:1011D000018421004184210081842B21445430006A
:1011E000C0B2FFF70BFF0120287070BD8101002005
:1011F00038B52548007800281AD020480168491CD5
:101200000160FFF7D7FE04002000C0B2FFF710FF17
:1012100005001B480078002804D0280040B2FFF7E2
:1012200045FF01E0FFF7D3FE2000C0B2FFF7E6FE66
:1012300031BD00007D01002000B50100C9B20029C8
:1012400001D0012100E000210D4A117000BD000015
:101250007E0100206A0100206C010020EFF3108164
:1012600072B6054A10780023137081F31088C0B25B
:101270007047000000040050820100205000002050
:1012800080010020680100207F010020FEB50022BF
:101290000B68D340002B00D1D4E001230C681D0063
:1012A000954025400295029C002C00D1C8E0032403
:1012B0004D682540012D03D04D682540022D19D1E0
:1012C000866815006F002500BD40AE43CD6817004D
:1012D0007F00BD4035430195019D856046681D0036
:1012E0009540AE434D682D091D409540354301950D
:1012F000019D45604D682540032D0DD0C668150041
:101300006F002500BD40AE438D6817007F00BD40D3
:1013100035430195019DC5604D682540022D1DD1C5
:10132000D508AD0045192D6A01951C25019EB446CE
:101330000F271600B6002E40B7406646BE43370062
:10134000BC460E691700BF003D40AE4067463E43B5
:101350000196D508AD004519019E2E62066815005C
:101360006F002500BD40AE434D68254017007F004B
:10137000BD4035430195019D05604D68C026B6020C
:101380002E40002E5CD03D4D9608B600AE59019619
:10139000019E00960F27BC461600F70018263E4017
:1013A0006746B740009EBE43A027FF05B84201D163
:1013B00000230DE0324FB8420AD0324B984201D19F
:1013C000022305E0304B984201D1230000E00523C1
:1013D0001400E40018272740BB4033439408A400BE
:1013E0002B512A4D2C68029EB4434E68F60202D55A
:1013F0002300029C1C432C60254D2B68029EB343A6
:101400004E68B60202D51C00029B23432B60214D7F
:101410002C68029EB4434E68B60302D52300029C9A
:101420001C432C601C4B1D68029EB54301954D6802
:10143000ED0303D5019C029D25430195019C1C6091
:10144000521C25E7F7BD00B5020010690B009BB2E6
:101450001840002801D0012000E00020C0B200BDEB
:1014600000B51300DBB2002B03D00B009BB28361ED
:1014700002E00B009BB2836200BD000060180240D6
:101480000004005000080050000C005000180240FA
:1014900004180240841802408018024010B504006D
:1014A000A4480470FFF7B0F9A3490860A348047684
:1014B00010BD80B5A2480078002802D000F0EFF9F6
:1014C00001E000F0A7F901BD80B59A480178022932
:1014D00004D19C49962000F07AFA1AE0007803289B
:1014E00017D100F0FEFA022802D0042806D00BE043
:1014F00064219620400000F06AFA0AE09621490033
:10150000642000F064FA04E09621FA20400000F024
:101510005EFA01BD10B58A4C2078002803D1FFF790
:1015200003FC002801D1002006E00120207083493F
:10153000C87600F09EFB012010BD38B504007D4840
:101540000078032804D17D480169491C01610CE041
:10155000FFF75AF97C49086078484168491C4160A6
:10156000002101600320FFF799FF784D7848297822
:10157000C900411849682A78D200805800F097FACB
:101580007449287800F075F92000C0B2002803D013
:10159000FA20C00000F054FB31BD80B500F09AFA8B
:1015A000FFF787FF0220FFF779FF01BDF8B50400C0
:1015B00000252F00614884762100C9B2012911D18C
:1015C0005C490978032909D18168491C8160FFF7CA
:1015D000E4FFFA20400000F033FB02E00120FFF7B7
:1015E000ACFF22E0661E3100C9B2042901D30321F9
:1015F0000E00564932000B78D2B29A420BD00E70D0
:1016000046764169491C41613000C0B2FFF760FB7A
:10161000FFF780FF07003800C0B2002801D0280083
:1016200000E00120C0B2FFF788FFF1BD38B5474C9C
:10163000FFF748FB2070424DFFF776FB2870002033
:10164000414908603D49086048608860C860086199
:10165000486122784A7688762878C8760020FFF795
:10166000EBFD0020FFF71AFF31BD70B5FFF7CCF896
:101670000500304E3078002805D0022834D024D31D
:10168000032831D052E02C480068281AFA2189003A
:10169000884219D32A480078002804D000F0E9FADB
:1016A00000F0FDF80DE0FFF73AFB002802D000F053
:1016B000E0FA03E0FA20C00000F0C2FA032000F0D4
:1016C000C3F80120FFF7EAFE30E000F0E3FA00285B
:1016D00009D100F0F0F8002805D10220FFF7DEFE66
:1016E0000120FFF7A9FD21E0FFF7B8FD040020006D
:1016F000C0B2002803D02000C0B2FFF757FF3078F7
:10170000032812D1FFF780F80C490F4A1268801A9B
:1017100008600868104A904207D3C868401CC86037
:10172000FFF73BFF0D4800F08BFAFFE7FFF7CCFE19
:1017300070BD00007A010020300100209C000020D4
:101740007C010020220B0000340100207B010020DE
:1017500028230008B80B000000BADB00983A00000C
:1017600010B504002000C0B2002801D0012200E022
:101770000022D2B24021A020C005FFF771FE7648BA
:10178000847310BD10B5754C754800782070012029
:1017900074490870FFF738F8734908606E480168AB
:1017A000491C0160217841730120FFF7D9FF10BD6A
:1017B00030B4029C6A4D28706C4D29706C4D2A60C3
:1017C0006C4D2B806C4D2C80634D2873E9736A60DF
:1017D0002B816C8130BC704738B5002420005F49F4
:1017E000087020005F4908705F4DFFF70DF8286012
:1017F00028686249086058480460447300200090DB
:101800000023002200210020FFF7D2FF0020FFF775
:10181000A7FF31BD1CB500242000504908702000EE
:1018200050490870FEF7F0FF544908604A48447375
:10183000002000900023002200210020FFF7B8FFC5
:101840000020FFF78DFF13BD1CB504002000C0B2BF
:10185000002802D1FFF7DEFF0AE0C8200090C8236D
:10186000002200212000C0B2FFF7A2FFFFF78AFF8D
:1018700013BD38B504000D002000C0B2002802D10D
:10188000FFF7C8FF0AE0C8200090C8232A00012102
:101890002000C0B2FFF78CFFFFF774FF31BD80B5A9
:1018A000642000906423002201210120FFF780FFC3
:1018B000FFF768FF01BD00B528480078002805D073
:1018C0002A480078002801D1012000E00020C0B2A1
:1018D00000BD70B5FEF798FF04002048017800298C
:1018E0000DD122480078002808D024480068201A2A
:1018F0001F490968884201D3FFF744FF2BE01949CB
:101900000A78002A02D01B4A158801E01A4A158875
:10191000154A1368E31AAB421DD313685B191360B1
:101920000B78002B05D0002008700020FFF718FF6F
:1019300011E003785B1E03700378074E7373007821
:10194000002805D0012008700120FFF709FF02E000
:1019500010680A49086070BDEC0000208901002071
:10196000880100208A010020540100208B01002002
:101970005001002074010020760100205801002051
:1019800010B504002000C0B2002801D0012200E000
:101990000022D2B280213048FFF762FD2F48047048
:1019A0002F48047110BD10B501202E490870002485
:1019B0002D4804802D480480FEF726FF2C4908603E
:1019C0002748048044800120FFF7DAFF10BD38B5B6
:1019D00005000C002348017800290BD12900224A78
:1019E000128889B2914205D12100204A128889B219
:1019F00091420FD0002101701B4805801B480480D4
:101A0000FEF702FF1A49086015480580448001204E
:101A1000FFF7B6FF31BD38B5FEF7F6FE04001148FA
:101A20000078002817D10D480178002902D00E490E
:101A30000D8801E00D490D880D490A68A21AAA42D5
:101A400009D30C600078002801D0002000E00120BC
:101A5000C0B2FFF795FF31BD0004005087010020A0
:101A60002801002086010020700100207201002062
:101A70004C01002010B5040043480470FEF7C4FE7A
:101A8000424908604248047510BD80B500204149B4
:101A90000860414908603E49086048608860C86045
:101AA000086100F0CCF90020FFF7E4FF01BD38B574
:101AB00005000C0037480560374804603448016869
:101AC000491C01608560C46000F0B9F90120FFF78E
:101AD000D1FF31BD80B500F0B2F90020FFF7CAFF99
:101AE00001BD29480078704738B5274C2078002878
:101AF00049D0FEF789FE25490968451A2448056141
:101B00002178012907D03ED3032918D00CD3052909
:101B10002BD01FD337E0642D05D3002000F059F9F6
:101B20000220FFF7A7FF2EE0FA204000854205D3F0
:101B3000002000F07CF90320FFF79CFF23E015480C
:101B40000068854205D3012000F043F90420FFF727
:101B500091FF18E0FA204000854205D3012000F0F3
:101B600066F90520FFF786FF0DE00B4909688D42F5
:101B700008D34168491C4160002000F02AF9022086
:101B8000FFF778FFFFE731BD850100204801002005
:101B9000D4000020400100204401002010B50400C2
:101BA0002000C0B2002801D0012200E00022D2B201
:101BB00008214E48FFF754FC4D48C47210BD38B59B
:101BC00005000C004B480580FEF71EFE4A490860E0
:101BD000474805812000C0B2FFF7E0FF31BD80B566
:101BE00000200100434A1180444908600100444A32
:101BF0001170FF21434A11703D4A108191720020FB
:101C0000FFF7CCFF01BD10B504003E480470384812
:101C100084722000C007C00F01214140C9B237487B
:101C200000682200D2B25200805AFFF7C8FF10BDF0
:101C300080B52F48002101604160FFF7D0FF01BD52
:101C400010B50400200080B2002811D0200080B21E
:101C50002D49884201D32D480400FFF7C0FF2448D6
:101C60000168491C01600121200080B2FFF7A7FF35
:101C700010BD80B5FFF7B3FF25482049086011204B
:101C80001F4908701A484168491C41600020FFF74D
:101C9000BAFF01BD00B517480088002801D0012017
:101CA00000E00020C0B200BD10B5124C2088002812
:101CB0001BD0FEF7A9FD10490968401A2188884207
:101CC00013D30E48006800280DD00E480178491C37
:101CD0000B4A1278C9B2914205D20078401CC0B2BA
:101CE000FFF791FF01E0FFF77AFF10BD00040050FD
:101CF0001C0100206E010020380100203C01002062
:101D00008301002084010020214E0000204E0000AD
:101D1000A422000800B50200D2B2002A01D001229C
:101D200000E000220B00DBB2002B01D0012300E019
:101D30000023D2B2DBB29A4201D0012200E000229D
:101D4000D2B2002A01D0012000E00020C0B200BDC4
:101D500038B505000C002800C0B200280ED10021C3
:101D60002000C0B2FFF7D6FF0200D2B22021A0208F
:101D7000C005FFF775FB374804730DE00021200014
:101D8000C0B2FFF7C7FF0200D2B28021A020C00579
:101D9000FFF766FB2F4844732F482900C9B244540B
:101DA00031BD00B5C0B2002801D1012000E0002003
:101DB000C0B200BD80B5274800210160416081604C
:101DC00000210020FFF7C4FF00210120FFF7C0FF22
:101DD00001BD70B504002000C0B2FFF7E2FF0600AD
:101DE0001D4D3000C0B2285C002808D01948816819
:101DF000491C816000213000C0B2FFF7A9FF20001C
:101E0000C0B2285C00280CD12000C0B2002804D148
:101E100010480168491C016003E00E484168491CF4
:101E2000416001212000C0B2FFF792FF70BD10B5E4
:101E3000040000212000C0B2FFF78AFF10BD80B56A
:101E400000210020FFF784FF00210120FFF780FF21
:101E500001BD00000C0100207801002080B500F0D9
:101E6000BBF800F024F800F064F800F052F8FFF737
:101E700094F9FFF70AFEFFF7AFFCFFF7D9FEFEF774
:101E800099FEFFF7D3FBFFF78EFD4B4800F0F1F80A
:101E90004A480168491C0160FFF7BDFDFFF704FFD8
:101EA000FFF717FDFFF720FEFFF7DFFBEDE710B5AB
:101EB00092B03822002104A800F0E8F81022002196
:101EC000684600F0E3F88020800000F0E9F80A207E
:101ED000049080204000079000240894402009903E
:101EE00001200A900B9404A8FEF7E8F8002801D01E
:101EF00000F06EF8072000900194029403940021F2
:101F00006846FEF743FB002801D000F061F812B0EC
:101F100010BD80B528482A49016006214160294941
:101F2000C160816000F070F8002801D000F050F826
:101F300001BDF8B586B014220021684600F0A6F86D
:101F40000124214801682143016001682140059175
:101F50000599022102680A43026000680140059168
:101F60000598A027FF050022E0213800FFF778FA46
:101F7000164E002288213000FFF772FAE020009010
:101F8000019400250295039569463800FFF77EF914
:101F900000940195029569463000FFF777F9882093
:101FA000009001940295039569463000FFF76EF9A1
:101FB000FFF700FF07B0F0BDFC0000205C0100202F
:101FC00000300040FF0F00003410024000040050B9
:101FD00000B572B6FEE7FEE710B5002409480168B7
:101FE000802252000A4302600320FEF76BFC0028A7
:101FF00002D00120040001E000F07EF82000C0B211
:1020000010BD00000020024070B50400002C01D17A
:1020100001202DE01A48216808601A4821680860EC
:10202000606821684860A06821688860FEF7ECFB62
:10203000050007262068C068304000280BD0FEF756
:10204000E3FB401B3228F4D32068C0680640002E12
:10205000EFD003200CE020680069E168884203D0DB
:10206000E0682168086102E00748216808600020F4
:1020700070BD010004480A6810600020704700002D
:10208000CCCC000055550000AAAA000010B50400F1
:10209000080011000200200000F048F8200010BDE8
:1020A00030B504000F4801680F4A0A40224302601D
:1020B00080208000844212D10C48006806214843E9
:1020C0000B49FEF7A7FB401C05000A4800684005C5
:1020D00005D5002D01D06D1EF7E7032000E000209C
:1020E00030BD000000700040FFF9FFFF0400002039
:1020F00040420F001470004081B0012009490A6875
:1021000002430A600968084000900098802040055A
:1021100005490A6802430A6009680840009000986F
:1021200001B07047401002403C1002401206130AF2
:102130001A43130C1A4300BF094205D0830705D088
:102140000270401C491EF9D170470000130010397D
:1021500006D330B41400150010393CC0FCD230BC9A
:10216000490700D30CC000D504C0890002D3028007
:10217000801C002900D502707047FEE704000000B3
:102180000024F400F0B5002203000C000C4D2E6872
:102190008027FF0237432F60EFF3108572B61600D9
:1021A000F6B2402E05D226681E60241D1B1D521C4F
:1021B000F5E7044E3668F603FBD485F31088F0BDCE
:1021C000142002401020024001000000FEE7000041
:1021D00000000000000000000000000000000000FF
:1021E00000000000000000000000000000000000EF
:1021F00001000000020000000300000004000000D5
:1022000006000000070000000800000009000000B0
:1022100070B40123002413E00168001D194202D0AC
:102220004D466918491E0C60091D121F042AFAD276
:102230000D00960701D50C80AD1C1A4000D02C7003
:102240000268001D002AE7D170BC704730B401223B
:102250000EE00368C31844680830144202D04D46AB
:102260002C19641E1D6825601B1D241D091FF9D132
:102270000168001D0029ECD130BC704710B507493A
:1022800079441831064C7C44163404E0081D0A6871
:10229000891888470100A142F8D110BD68000000EC
:1022A00088000000780078007800780078006801E5
:1022B000680178006801780068016801780078009A
:1022C000780078007800000080B5FEF730FD002827
:1022D00000D1FEE701BD00B5FEE77047704780B54D
:1022E00000F004F8FEF784FF01BDFEE70348016833
:1022F000034A127889180160704700BF640100200A
:102300004C0000200DFFFFFF4001000050000020A6
:102310000000000039FFFFFF5000000060FEFFFFDB
:10232000000000200000000000000000000000008D
:10233000905F0100407E0500905F010080FC0A0074
:10234000905F0100C07A100000F00DF8002801D065
:10235000FFF794FF00BF00BF002000BF00BFFFF7E2
:102360007DFD00F002F80120704780B500F002F812
:1023700001BDFEE70746384600F002F8FBE7FEE73E
:1023800080B500BF00BF024A11001820ABBEFBE7BA
:10239000260002000548014603B4684680F3098818
:1023A00000BF00BF00BF00BFFFF7CEFFA5EDF5FEE9
:1023B0000148804701480047F123000895230008A1
:1023C000FEE7FEE7FEE7FEE7FEE7FEE7FEE7FEE7E5
:1023D000FEE7FEE7FEE7FEE7FEE7FEE7FEE7FEE7D5
:1023E000FEE7FEE7FEE7FEE7FEE7FEE7FEE70000AA
:0223F000704734
:040000050800239537
:00000001FF
