:020000040800F2
:1000000088050020891B0008F11A0008FF1A000863
:1000100000000000000000000000000000000000E0
:10002000000000000000000000000000011B0008AC
:100030000000000000000000031B0008051B000872
:10004000DF0600082F070008EB1700085F190008FB
:100050004B1B0008571B0008991B00089B1B00083E
:100060009D1B00089F1B0008A11B0008A31B000884
:10007000A51B0008A71B0008A91B0008AB1B000854
:10008000AD1B0008AF1B0008B11B0008B31B000824
:10009000B51B0008B71B0008B91B0008BB1B0008F4
:1000A000BD1B0008BF1B0008C11B0008C31B0008C4
:1000B000C51B0008C71B0008C91B0008FEB50700C8
:1000C0001BD0A84C3878C00719D5A1683820084043
:1000D000E1688025AD02102808D18807800F032829
:1000E00006D079686808814234D13BE00828F8D10D
:1000F0002068054003D07868002800D1BEE1387838
:1001000080077BD5A06838210140E268A848A94D46
:1001100010294ED19207920F022A4CD0F96800297B
:1001200000D196E0216808403969014321602068C8
:10013000A10D0143216000F0B1FA3E0007002068E4
:10014000400500D57DE000F0A9FAC01B0328F6D3D6
:100150000320FEBDA022D202914207D12168820075
:100160000A43226021680843206007E02068924922
:100170000140216020689149014021607868002891
:100180000BD000F08BFA060020682840B7D100F0B1
:1001900085FA801B6528F7D3DAE700F07FFA0600BE
:1001A00020682840ABD000F079FA801B6528F7D38F
:1001B000CEE70029B2D12268520502D5FA68002A9A
:1001C0003ED0626815407A6912022A4362600029B3
:1001D0000ED121680840396901432160A8480121F6
:1001E00022689204520F914000F05EFAA54908601F
:1001F000A548006800F074FA002821D1022538785B
:1002000000070AD5A06838210140182931D1206E95
:10021000284002D0B869002812D03878400700D4AE
:10022000A9E000200190A06838210140202942D196
:10023000E06D054000D19EE0B868002800D09AE04B
:100240001CE1606805407069000228436060370067
:10025000D4E720688D490140216000F01FFA0500B5
:1002600020684005CAD500F019FA401B0328F7D3CF
:100270006EE7B8690028206E0ED001210143216687
:1002800000F00CFA0600206E2840C6D100F006FAF5
:10029000801B0328F7D35BE701218843206600F029
:1002A000FDF90600206E2840B7D000F0F7F9801B5A
:1002B0000328F7D34CE7E806E16B014008D1E16B76
:1002C0000143E163E16B0840009000980120019038
:1002D0006F4D2868C00512D4A00D009028680099C1
:1002E0000143296000F0DAF906002868009901400E
:1002F00005D100F0D3F9801B0328F6D328E7B868AE
:100300000121012805D00528E06D06D10422024311
:10031000E265E06D0143E16505E08843E065E06D7D
:1003200004218843E0650226B86800280CD000F05C
:10033000B5F90500E06D304016D100F0AFF9401B73
:10034000A8498842F6D303E700F0A8F90500E06D5C
:10035000304009D000F0A2F9401BA2498842F6D3F0
:10036000F6E600BF001002400198002803D0E06BC1
:100370009D490140E163F869002858D0A1683822FE
:100380000A40102A55D08026B604984902282068D1
:100390003BD10140216000F081F905002068304028
:1003A0000ED000F07BF9401B0328F7D3D0E600BF46
:1003B000FFC7FFFFFF80FFFFFFFFFEFFFFFFFBFF09
:1003C000E0688B490140386A0843796A0143B86A9A
:1003D00000020843F96A0143386B0843796B014313
:1003E000E1602068710801432160E068F100014389
:1003F000E16000F053F905002068304017D100F0AB
:100400004DF9401B0328F7D3A2E60140216000F01C
:1004100045F905002068304005D000F03FF9401B49
:100420000328F7D394E6E06893490140E160002097
:10043000FEBD012822D0E0688107890F3A6A914207
:100440001CD1702101407A6A914217D1FE21C90165
:100450000140BA6A1202914210D1F8218903014089
:10046000FA6A91420AD1E021090501403A6B9142B2
:1004700004D1400F4007796B8842D8D00120FEBDDF
:100480000024F4000C00002008000020FFFEFFFF05
:1004900000700040F8B5070066D00091774800680A
:1004A0004007400F884218D2744C206807218843C7
:1004B00000990143216000F0F1F8009D06002068DA
:1004C0004007400FA84207D000F0E8F8801B4549DC
:1004D0008842F4D30320F2BD00953968694C0220AC
:1004E00001420CD0490704D5A168E022D2010A4399
:1004F000A260A168624A0A40B9681143A160072559
:10050000ED433978C90732D57968012918D12068B7
:10051000800329D5A06828400143A16000F0BEF8FF
:100520003E000700A068382101407068C000814289
:100530001CD000F0B3F8C01B2A498842F2D3C9E7A7
:10054000022902D12068800103E0002903D120683C
:100550004005DFD408E0032903D1226E1040D9D131
:1005600002E0E26D1040D5D10120F2BD37000098C5
:10057000424909684907490F884217D23F48006835
:100580000540009828433D49086000F087F8009D29
:1005900006003A4800684007400FA84206D000F025
:1005A0007DF8801B0F498842F3D393E738784007E2
:1005B00005D5A06834490140F8680843A06000F000
:1005C00019F83249A2681205120F9200895CC90617
:1005D000C90EC8402E4908602E48006800F080F817
:1005E000F2BD000089130000FFFFFFEFFFFFFFFED9
:1005F0008C80C11130B507212748224C3823A268CE
:100600001A4006D123680122DB0A19408A401100F2
:100610001EE04208A5681D40082D01D1100030BD24
:10062000A5681D40102D16D1E368E5682D09294005
:10063000491C7F259B079B0F032B00D1100000F066
:1006400033F8E168090A0D406843E168490F491C25
:1006500000F02AF830BDA0681840202802D1802080
:10066000000230BDA0680340182B02D1FA20C0015F
:1006700030BD002030BD0000FCFFFEEE0020024037
:10068000FFF0FFFF00100240FF8FFFFFA4190008DA
:100690000C000020080000200024F40001484068FD
:1006A000704700BF00000020094214D088420FD3D9
:1006B0000122030C01D100041204002300185B4145
:1006C0008B4200D35B1A5241F8D3190010007047D7
:1006D00001000020704708B500F028F808BDFEE7CB
:1006E00070B5060000240F4D2978002916D0FA2095
:1006F0008000FFF7D9FF01000B480068FFF7D4FF27
:1007000000F038F8002809D1042E07D20022310069
:100710000020C04300F029F8AE6000E00124200072
:1007200070BD00BF000000200C0000207047FEE7F5
:1007300010B5C20018231340FF249C40E2438907F0
:10074000090E9940030004D414489B089B00C0186C
:1007500006E0134B0007000F0838800880001818C7
:1007600003681A401143016010BD80B5FFF7E0FF38
:1007700001BD000010B5401E80214904884201D30C
:10078000012010BD074C606003210020C043FFF72B
:10079000CFFF0020A0600721216010BD00E400E031
:1007A0001CED00E010E000E0C0009D4940187047DB
:1007B0000200C0B2130400290DD1110C0904994A9A
:1007C000914208D1C243D2B21B0E9A4203D10028F3
:1007D00001D0062800D300207047C000904BC018FD
:1007E00003680B604068106070477CB505000E0020
:1007F000FFF7DAFF8C4CF2431102FF2212020A408B
:1008000031001143874A0A4300230100012000F010
:100810001DF900280AD16A4601A92800FFF7DDFF6B
:1008200000990198FFF7C4FFB04204D02069401C32
:100830002061002076BDA068401CA060656001209A
:1008400076BD38B50400794D6868FF2801D90020CD
:1008500032BD00F028F976487649086021006868C2
:10086000FFF7C3FF040000F02EF9200002D06868F3
:10087000401C6860200032BDF1B586B0002500261E
:1008800000F011F96A486B49086000950220019058
:10089000042002903F20039001200490624CE06805
:1008A000401CE060614F694601A800F067F900282C
:1008B00003D02069401C206107E06846017E7D600E
:1008C0000020FFF792FF0600350000F0FCF8002D35
:1008D00001D001207860300007B0F0BDFEB50024E3
:1008E00000270125514A15705470947029025160F7
:1008F0004D4E4B4931600021C9437160B460F460D2
:100900003461746100217176B176F1763177717757
:1009100069460C7001AA02A92000FFF75EFF0020C3
:10092000C0430299814202D1019981420BD00199C1
:100930000298FFF73DFF01001DD069460870746002
:100940000120707618E03948446068460078716983
:10095000002900D00127010001D034490870002F80
:1009600010D00120F076314C2078FFF785FF002869
:1009700006D0357718E00127641CFF2CCAD9E4E7BC
:1009800025700FE0294C606800280DD10120A0706F
:10099000B076FFF756FF002806D10120FFF76CFF65
:1009A000002801D16570757720783076F7BD1F4833
:1009B0000078704770B5060018D0062816D21B4C78
:1009C0002178884212D02670174D2E766078002844
:1009D0000CD13000FFF735FF002807D13000FFF7BA
:1009E0004BFF002802D101206070687770BD0F486E
:1009F000807870470D48407870470F480168802222
:100A00001206114206D00368134303600648436987
:100A10005B1C43610A40100000D00120C0B2704747
:100A200000F801080000775EE4000020800100204B
:100A3000FAC30000102002401820024008B4024B04
:100A40009C4608BC6047C04611000020F1B50F006D
:100A500014001D0041480078012801D10220F2BD98
:100A600001203E49087000264E60FA20800000F008
:100A70003DF8010014D1380022002B000099012913
:100A800002D100F05FF802E01100FFF7D7FFFA2073
:100A9000800000F02BF832490A68009B9A430A60F4
:100AA0002E490E70F2BD0020304980221206CB681C
:100AB000134007D02E4B0B602E4B0B60C9680A40C9
:100AC00000D00120704710B50124FA20800000F00A
:100AD0000DF880200006FFE721490A6802430A60FA
:100AE0000968084000D00024200010BDF8B50500BA
:100AF000FFF7D4FD0027FF431B4C06002068C0030E
:100B000008D5BD42FAD0FFF7C9FD801BA842F5D336
:100B10000320F2BD216813480840174921600028CE
:100B200003D00E4948600120F2BD2068400307D57C
:100B3000BD42FAD0FFF7B2FD801BA842F5D3E7E72C
:100B40000020F2BD30B506490C68012525430D6033
:100B50000260BFF36F8F001D036030BD04010020F1
:100B600014200240FAC30000102002400820024076
:100B700023016745AB89EFCDFBC30000F8B5040046
:100B80000F0027480078012801D10220F2BD012082
:100B90002349087000254D60FA208000FFF7A6FF6A
:100BA00001002CD104216160216804290AD11A486E
:100BB00000681A49014318480160FA208000FFF7D5
:100BC00095FF1CE00021C9433960A16826000C0094
:100BD00000E0641CB168F26889188C420AD22100D6
:100BE000706800F00FF8FA208000FFF77FFF010027
:100BF000EFD03C6008490A6802239A430A6008491A
:100C00000D70F2BD04480268064B1340C900194339
:100C1000054A0A43026070471420024004000100A4
:100C20000401002007E0FFFF0200010038B50400C6
:100C30007E4D2C77FFF732FD28622C7631BD38B51A
:100C400005007A4C207F032803D12069401C2061D5
:100C50000AE0FFF723FD60626068401C60600020CE
:100C600020600320FFF7E2FF607FC000704A111D83
:100C70000958105800F0FAF86E49607F00F0B0F99A
:100C8000002D03D0FA20C00000F03AFA31BD80B543
:100C900000F0F9F86548807F002802D000F0B0F934
:100CA00001E000F07DF90220FFF7C0FF01BD10B5A3
:100CB0005E4CFFF77CFE6077FFF79CFE00216162CF
:100CC00021606160A160E16021616161627F6276A3
:100CD000A176E076A077002000F03BFB0020FFF734
:100CE000A5FF10BDF8B5FFF7D9FC05004F4C207FDC
:100CF000002805D0022833D023D3032830D079E050
:100D0000206A281AFA218900884200D28DE0A07F4B
:100D1000002804D000F006FA00F072F90DE0FFF7A9
:100D200066FE002802D000F0FDF903E0FA20C000C2
:100D300000F0E6F9032000F047F90120FFF776FF05
:100D400058E000F0FEF900286FD100F061F90028AA
:100D50006BD10220FFF76AFF012000F0FAFA49E0A8
:100D600000F0FDFA010033D001260127A07601280A
:100D70000ED1207F032809D1A068401CA060FFF796
:100D800086FFFA20400000F0BBF921E001201DE0C1
:100D9000401EC1B2062900D30520627FC1B2914234
:100DA00013D0607760766169491C6161C0B2FFF75A
:100DB00001FEA07F002808D1FFF71CFE002804D008
:100DC000A677E67600F0AEF900273800FFF737FF88
:100DD000207F03280ED1606A281A206020681649F7
:100DE00088420FD3E068401CE060FFF750FF1348D3
:100DF00000F086F9207F022802D11149962012E0E6
:100E0000032812D19624640000F044F8022804D08C
:100E1000042805D12100642005E06421200002E0BF
:100E20009621FA20400000F0C8FAF1BD70000020C1
:100E3000201A0008B80B000000BADB00983A000046
:100E4000220B000038B50400324D2C76FFF726FC4B
:100E500068622C7531BD80B52E480021C1610162E8
:100E6000016041608160C16001610DE080B5294A87
:100E7000D061116213685B1C13609060D16000F058
:100E80002DFB012003E080B500F028FB0020FFF7D8
:100E9000D9FF01BD1F48007E704710B51D4C207E54
:100EA000002836D0FFF7FAFB616A401A2061FA2168
:100EB0004900227E012A07D02BD3032A0ED006D365
:100EC000052A1AD012D310BD642822D31BE0884211
:100ED0001FD3002000F0FFFA032018E0E1698842E8
:100EE00017D3012000F0D3FA042010E0884210D379
:100EF000012000F0F0FA052009E0216A884208D3B9
:100F00006068401C6060002000F0C1FA0220FFF71A
:100F100099FF10BD9800002010B50400020000D019
:100F200001224021A020C00500F09BFB554884739E
:100F300010BD10B5534C207C60740120A074FFF7E5
:100F4000ADFBE0612068401C2060607C6073012084
:100F5000FFF7E2FF10BD30B5039C4A4D2874E974D9
:100F6000AA61AB82EC822873E9736A602B816C8181
:100F700030BD7CB50026434C6674A674FFF78EFB2B
:100F80000500256226606673002000900023002281
:100F90000021FFF7E0FFE5610020FFF7BDFF73BD13
:100FA00038B50025374C6574A574FFF777FB2062D0
:100FB000657300200090002300220021FFF7CBFF83
:100FC0000020FFF7A9FF31BD80B5010002D1FFF776
:100FD000E7FF01BDC8210091C823002200210AE0DB
:100FE00080B50A00010002D1FFF7DAFF01BDC82178
:100FF0000091C8230121FFF7AEFFFFF79AFF01BD63
:1010000080B5642000906423002201210120F2E7D2
:101010001C48417C002904D0C07C401E8041C00F88
:1010200070470020704738B5FFF738FB15494A7CF8
:10103000002A0AD1CA7C002A22D00A6A801A896949
:1010400088421DD3FFF775FF31BD8B7C002B01D08B
:101050008C8A00E0CC8ACD69401BA04210D32819AD
:10106000C861002B01D0002005E0521E4A744A736B
:10107000120604D001208874FFF74EFF31BD0862CC
:1010800031BD0000C000002010B50400020000D0F7
:10109000012208213C4800F0E4FA3C48C47210BD2B
:1010A00070B505000C00394EF581FFF7F7FA306195
:1010B00035812000FFF7E8FF70BD80B5002033497F
:1010C000C88148610873FF224A7308818A72FFF75A
:1010D000DBFF01BD80B52D4A50739072C307DB0F53
:1010E0000121594052694000105AFFF7D9FF01BD54
:1010F00080B52648002101604160FFF7DEFF01BD99
:1011000010B504000DD02249884200D34C1EFFF7D1
:10111000D4FF1E480168491C016001212000FFF72F
:10112000BFFF10BD80B5FFF7C8FF184819494161DE
:10113000112101734168491C41600020FFF7CAFF7B
:1011400001BD1248C089002800D00120C0B27047FC
:1011500010B50E4CE089002815D0FFF79FFA2169E1
:10116000401AE18988420ED36069002809D0607B6B
:10117000401C227BC1B2914203D2C0B2FFF7AAFF4A
:1011800010BDFFF79AFF10BD0004005020010020A1
:10119000214E0000A81A000880B50121754800F012
:1011A0005AFA401E8041C00F02BD002072490A79E0
:1011B000002A00D002220A704870088148814871D4
:1011C00070476E49262288546B4802792723CA54F7
:1011D000C2782823CA5402782923CA5442782A2381
:1011E000CA5402898A834089C883704770B5002435
:1011F000614D0020A870E870FFF7CEFF06002E7149
:10120000EC80FFF7D2FF5D48046044608460C460F6
:1012100004614461846100210184418481842B2123
:1012200044543000FFF7CDFF0120A87070BDF8B521
:10123000514CA078002864D0504D2868401C28608C
:10124000FFF7AAFF694608702079002801D014230F
:1012500000E00F23E28800216E4636782779BE42EF
:101260000AD1002A06D0AB695B1CAB61AB8C934200
:1012700000D2AA84002203E0521C96B29E4201D200
:10128000002610E000226B461B7823712379002B87
:1012900004D06B685B1C6B60012604E0AB685B1CD0
:1012A000AB600026F643E28022786378E778002F6F
:1012B0004AD0002A3DD0012A41D1002E06D52089EE
:1012C0002884FF2B00D05B1C618114E0608902DD63
:1012D000688421810FE02679002E13D02089401CDC
:1012E00086B2FA27FF00BE4204D36A69521C6A61C3
:1012F0000023022220812270637068460078FFF785
:1013000060FFF1BD401C86B2AF27BF00BE420ED3C6
:101310001A46072A03D306222B695B1C2B616271D4
:10132000EB685B1CEB602B23EA54002300226081F6
:10133000E1E7002EDFDD002321810122DBE7002E23
:10134000D9D500230022D6E7FFF72FFF2278637854
:10135000D1E7010000D001210748C1707047EFF3C9
:10136000108172B6044A50790023537181F31088BA
:10137000704700000004005072010020440000206B
:1013800010B50400020000D001228021244800F0A2
:1013900068F924484472047110BD38B5214C01200D
:1013A000207200256581A581FFF778F920612580ED
:1013B00065800120FFF7E4FF31BD70B505000C002A
:1013C000184E307A002805D171898D4202D1B18939
:1013D0008C420BD0002030727581B481FFF75EF92A
:1013E0003061358074800120FFF7CAFF70BD10B5F1
:1013F000FFF754F90B490A7A002A0FD14A7A002ADA
:1014000001D04B8900E08B890C69041B9C4205D3F9
:101410000861501E8041C00FFFF7B2FF10BD0000F1
:101420000004005038010020020000D00122080012
:1014300000D00120824201D0012070470020704777
:10144000F8B507000C002A4DA026F60538000AD191
:1014500001212000FFF7E8FF02008021300000F0AA
:1014600000F92C7309E001212000FFF7DDFF0200E5
:101470002021300000F0F5F86C73E8190474F1BD18
:1014800080B51B48002101604160816028E038B5CB
:101490000400401E8041C00F154D29001031095C29
:1014A000002905D0A968491CA9600021FFF7C8FFE1
:1014B00028001030005D002808D1200003D12868E2
:1014C000401C286002E06868401C68600121200020
:1014D000FFF7B6FF31BD80B5002106E080B50021E1
:1014E0000020FFF7ADFF00210120FFF7A9FF01BD9C
:1014F00060010020FFB500220F2302932CE0052697
:1015000002E05B4FB842FAD1AE402643009C266011
:10151000584C2568DC4325404E68F60200D51D4333
:10152000544E3560756825404F68BF0200D51D4395
:101530007560514D6E6826404D68AD0300D51E4361
:101540004D4D6E602E6834404E68F60302D526007D
:101550001C0034432C60521C0B681C00D44079D012
:10156000012595402B40F6D054000327A740FE43A9
:1015700001964E68B707BF0F012F03D0B607B60F0D
:10158000022E0ED18768019E3E40CF68A7403743A8
:1015900087604668AE434D68EF06FF0F97403743BC
:1015A00047600D79AD07AD0F032D25D0C568019EAD
:1015B0002E408D68A5403543C5600D79AD07AD0F50
:1015C000022D19D1D508AD0045192E6A0396970052
:1015D0001C263E406F463E70039EB446029F6E46F8
:1015E0003678B7406646BE43B4460F696E463678D5
:1015F000B740664637432F6207680326019D3D408A
:101600004F683740BC4627006446BC402C4304600A
:101610004C68350425409ED0184C9508AD006419DF
:101620000094009C2468D70018253D40029FAF40DD
:10163000BC43A027FF05B84201D1002664E7104F44
:10164000B84201D101265FE70E4FB84200D058E7FB
:10165000022659E7FFBD0069084000D00120C0B252
:101660007047002A01D08161704781627047000095
:10167000000C005000180240801802406018024020
:101680000004005000080050F8B586B000F0AEF835
:1016900000F078F814220021684600F0BBF801241D
:1016A0003348016821430160016821400591059993
:1016B000022102680A430260006801400591059812
:1016C000A027FF050022E0213800FFF7CAFF294EBE
:1016D000002288213000FFF7C4FFE0200090019431
:1016E00000250295039569463800FFF703FF009433
:1016F0000195029569463000FFF7FCFE88200090B6
:1017000001940295039569463000FFF7F3FEFFF759
:10171000B7FE194C19482060062060601848E06048
:10172000A060200000F080F8002801D000F05BF8F5
:10173000FFF75CFDFFF78FFBFFF71BFCFFF7D8FC03
:10174000FFF7CCF8FFF7B3FAFFF727FE200000F011
:1017500096F82069401C2061FFF749FEFFF7F8FC6E
:10176000FFF761FCFFF799FBFFF7BCFAEEE700001B
:1017700034100240000400504C01002000300040B2
:10178000FF0F000010B592B03822002104A800F02D
:1017900041F810220021684600F03CF880208000CB
:1017A00000F078F80A200490F6300790002408949E
:1017B0004020099001200A900B9404A8FEF77EFCBB
:1017C000002801D000F00FF8072000900194029447
:1017D000039400216846FEF75DFE002801D000F06A
:1017E00002F812B010BD72B6FEE7FEE710B5002495
:1017F00007480168820D0A4302600320FEF770FF6C
:10180000002801D0012401E000F06AF8200010BD9A
:101810000020024010B50400080011000200200062
:1018200000F076F8200010BD70B5050001D1012050
:1018300070BD2868144901601449016069684160FD
:10184000A9688160FEF72AFF072406002868C1689E
:1018500021400AD0FEF722FF801B3228F6D32868E9
:10186000C0682040F2D0032070BDE96802698A4256
:1018700001D0016101E006490160002070BD04490A
:101880000068016000207047CCCC00005555000076
:10189000AAAA000010B50E4C21680E4A0A40024365
:1018A0002260610D884210D10B4800680621484330
:1018B0000A49FEF7F9FE401C00E0401E6169490537
:1018C00003D50028F9D1032010BD002010BD000071
:1018D00000700040FFF9FFFF0C00002040420F00A5
:1018E00081B00A48012142680A43426042681140BF
:1018F000009100998021490502680A43026000684E
:1019000001400091009801B0704700BF3C100240B8
:101910001206130A1A43130C1A4300BF094205D0DA
:10192000830705D00270401C491EF9D170470000A2
:101930001300103906D330B41400150010393CC020
:10194000FCD230BC490700D30CC000D504C08900CC
:1019500002D30280801C002900D502707047FEE788
:101960000100000000000000040000000024F4005A
:1019700030B50B4A53688024E4021C435460EFF3F3
:10198000108372B640240D680560091D001D641E99
:10199000F9D11068C003FCD483F3108830BD00BFB8
:1019A00010200240000000000000000000000000C5
:1019B0000000000000000000000000000000000027
:1019C0000000000001000000020000000300000011
:1019D00004000000060000000700000008000000EE
:1019E0000900000070B40123002413E00168001D09
:1019F000194202D04D466918491E0C60091D121F7C
:101A0000042AFAD20D00960701D50C80AD1C1A40AD
:101A100000D02C700268001D002AE7D170BC70470E
:101A20000000000000000000881300008813000080
:101A30001027000010270000983A0000983A000094
:101A4000204E0000307500003075000060EA000094
:101A500030B401220EE00368C31844680830144211
:101A600002D04D462C19641E1D6825601B1D241DC7
:101A7000091FF9D10168001D0029ECD130BC704765
:101A800010B5074979441831064C7C44163404E0FB
:101A9000081D0A68891888470100A142F8D110BDC5
:101AA0002C0000004C0000007800780078007800DE
:101AB00078006801680178006801780068016801B1
:101AC00078007800780078007800000019FFFFFFA8
:101AD00044010000440000200000000075FFFFFFEB
:101AE000440000007CFEFFFF00000020000000001A
:101AF00080B5FEF782FF002800D001BDFEE7FEE7BB
:101B00007047704780B500F003F8FFF790FB01BD08
:101B1000024841680278891841607047000000203F
:101B200000F00DF8002801D0FFF7AAFF00BF00BFAA
:101B3000002000BF00BFFFF7A7FD00F002F8012062
:101B4000704780B500F002F801BDFEE70746384651
:101B500000F002F8FBE7FEE780B500BF00BF024AD5
:101B600011001820ABBEFBE7260002000548014625
:101B700003B4684680F3098800BF00BF00BF00BF00
:101B8000FFF7CEFFA5EDF5FE01488047014800476D
:101B9000CD1B00086D1B0008FEE7FEE7FEE7FEE731
:101BA000FEE7FEE7FEE7FEE7FEE7FEE7FEE7FEE70D
:101BB000FEE7FEE7FEE7FEE7FEE7FEE7FEE7FEE7FD
:0E1BC000FEE7FEE7FEE7FEE7FEE700007047E7
:0400000508001B6D67
:00000001FF
